{
  "contractName": "DemoSupplyChain",
  "abi": [
    {
      "inputs": [],
      "payable": false,
      "stateMutability": "nonpayable",
      "type": "constructor"
    },
    {
      "constant": false,
      "inputs": [
        {
          "name": "_deviceId",
          "type": "uint8"
        },
        {
          "name": "_description",
          "type": "bytes32"
        },
        {
          "name": "_state",
          "type": "uint8"
        }
      ],
      "name": "addDevice",
      "outputs": [],
      "payable": false,
      "stateMutability": "nonpayable",
      "type": "function"
    },
    {
      "constant": false,
      "inputs": [
        {
          "name": "_deviceId",
          "type": "uint8"
        },
        {
          "name": "_timestamp",
          "type": "uint256"
        },
        {
          "name": "_temperature",
          "type": "uint256"
        }
      ],
      "name": "addReading",
      "outputs": [],
      "payable": false,
      "stateMutability": "nonpayable",
      "type": "function"
    },
    {
      "constant": true,
      "inputs": [
        {
          "name": "_deviceId",
          "type": "uint8"
        }
      ],
      "name": "getDeviceById",
      "outputs": [
        {
          "name": "description",
          "type": "bytes32"
        },
        {
          "name": "state",
          "type": "uint8"
        }
      ],
      "payable": false,
      "stateMutability": "view",
      "type": "function"
    },
    {
      "constant": true,
      "inputs": [],
      "name": "getAllDevices",
      "outputs": [
        {
          "name": "",
          "type": "uint8[]"
        },
        {
          "name": "",
          "type": "bytes32[]"
        },
        {
          "name": "",
          "type": "uint8[]"
        }
      ],
      "payable": false,
      "stateMutability": "view",
      "type": "function"
    },
    {
      "constant": true,
      "inputs": [
        {
          "name": "_deviceId",
          "type": "uint8"
        },
        {
          "name": "_readingNumber",
          "type": "uint8"
        }
      ],
      "name": "getLastNReadingsByDeviceId",
      "outputs": [
        {
          "name": "",
          "type": "address[]"
        },
        {
          "name": "",
          "type": "uint256[]"
        },
        {
          "name": "",
          "type": "uint256[]"
        }
      ],
      "payable": false,
      "stateMutability": "view",
      "type": "function"
    }
  ],
  "bytecode": "0x608060405234801561001057600080fd5b50336000806101000a81548173ffffffffffffffffffffffffffffffffffffffff021916908373ffffffffffffffffffffffffffffffffffffffff16021790555061008d60017f53656e736f722064652074656d706572617475726100000000000000000000006000610092640100000000026401000000009004565b61034f565b6000809054906101000a900473ffffffffffffffffffffffffffffffffffffffff1673ffffffffffffffffffffffffffffffffffffffff163373ffffffffffffffffffffffffffffffffffffffff1614151561017c576040517f08c379a000000000000000000000000000000000000000000000000000000000815260040180806020018281038252602f8152602001807f41636369c3b36e207065726d697469646120736f6c6f20616c2063726561646f81526020017f722064656c20636f6e747261746f2e000000000000000000000000000000000081525060400191505060405180910390fd5b600160008460ff1660ff16815260200190815260200160002060020160009054906101000a900460ff1615156102dc5782600160008560ff1660ff16815260200190815260200160002060000160006101000a81548160ff021916908360ff16021790555081600160008560ff1660ff168152602001908152602001600020600101816000191690555060018060008560ff1660ff16815260200190815260200160002060020160006101000a81548160ff02191690831515021790555080600160008560ff1660ff16815260200190815260200160002060020160016101000a81548160ff0219169083600281111561027257fe5b021790555060026020604051908101604052808560ff1681525090806001815401808255809150509060018203906000526020600020016000909192909190915060008201518160000160006101000a81548160ff021916908360ff16021790555050505061034a565b6040517f08c379a00000000000000000000000000000000000000000000000000000000081526004018080602001828103825260188152602001807f456c20696420696e64696361646f20796120657869737465000000000000000081525060200191505060405180910390fd5b505050565b610f1f8061035e6000396000f30060806040526004361061006d576000357c0100000000000000000000000000000000000000000000000000000000900463ffffffff1680630485066e1461007257806306c3f137146100b65780633a842044146101d85780637a2a530d14610239578063fbb6c92414610335575b600080fd5b34801561007e57600080fd5b506100b4600480360381019080803560ff1690602001909291908035906020019092919080359060200190929190505050610380565b005b3480156100c257600080fd5b506100f1600480360381019080803560ff169060200190929190803560ff169060200190929190505050610524565b60405180806020018060200180602001848103845287818151815260200191508051906020019060200280838360005b8381101561013c578082015181840152602081019050610121565b50505050905001848103835286818151815260200191508051906020019060200280838360005b8381101561017e578082015181840152602081019050610163565b50505050905001848103825285818151815260200191508051906020019060200280838360005b838110156101c05780820151818401526020810190506101a5565b50505050905001965050505050505060405180910390f35b3480156101e457600080fd5b50610206600480360381019080803560ff1690602001909291905050506108bb565b60405180836000191660001916815260200182600281111561022457fe5b60ff1681526020019250505060405180910390f35b34801561024557600080fd5b5061024e6109d6565b60405180806020018060200180602001848103845287818151815260200191508051906020019060200280838360005b8381101561029957808201518184015260208101905061027e565b50505050905001848103835286818151815260200191508051906020019060200280838360005b838110156102db5780820151818401526020810190506102c0565b50505050905001848103825285818151815260200191508051906020019060200280838360005b8381101561031d578082015181840152602081019050610302565b50505050905001965050505050505060405180910390f35b34801561034157600080fd5b5061037e600480360381019080803560ff1690602001909291908035600019169060200190929190803560ff169060200190929190505050610c36565b005b600160008460ff1660ff16815260200190815260200160002060020160009054906101000a900460ff161561048b57600160008460ff1660ff1681526020019081526020016000206003016060604051908101604052803373ffffffffffffffffffffffffffffffffffffffff168152602001848152602001838152509080600181540180825580915050906001820390600052602060002090600302016000909192909190915060008201518160000160006101000a81548173ffffffffffffffffffffffffffffffffffffffff021916908373ffffffffffffffffffffffffffffffffffffffff160217905550602082015181600101556040820151816002015550505061051f565b6040517f08c379a00000000000000000000000000000000000000000000000000000000081526004018080602001828103825260278152602001807f456c20696420646520646973706f73697469766f20696e64696361646f206e6f81526020017f206578697374650000000000000000000000000000000000000000000000000081525060400191505060405180910390fd5b505050565b60608060606000806060806060600080600160008d60ff1660ff16815260200190815260200160002060020160009054906101000a900460ff1615156105f8576040517f08c379a00000000000000000000000000000000000000000000000000000000081526004018080602001828103825260218152602001807f456c20646973706f73697469766f20696e64696361646f206e6f20657869737481526020017f650000000000000000000000000000000000000000000000000000000000000081525060400191505060405180910390fd5b600160008d60ff1660ff168152602001908152602001600020600301805490509650600095508a60ff16600160008e60ff1660ff168152602001908152602001600020600301805490501015610651576001955061067c565b60018b60ff16600160008f60ff1660ff16815260200190815260200160002060030180549050030195505b6001868803016040519080825280602002602001820160405280156106b05781602001602082028038833980820191505090505b5094506001868803016040519080825280602002602001820160405280156106e75781602001602082028038833980820191505090505b50935060018688030160405190808252806020026020018201604052801561071e5781602001602082028038833980820191505090505b509250600091508690505b85811015156108a457600160008d60ff1660ff1681526020019081526020016000206003016001820381548110151561075e57fe5b906000526020600020906003020160000160009054906101000a900473ffffffffffffffffffffffffffffffffffffffff16858381518110151561079e57fe5b9060200190602002019073ffffffffffffffffffffffffffffffffffffffff16908173ffffffffffffffffffffffffffffffffffffffff1681525050600160008d60ff1660ff1681526020019081526020016000206003016001820381548110151561080657fe5b906000526020600020906003020160010154848381518110151561082657fe5b9060200190602002018181525050600160008d60ff1660ff1681526020019081526020016000206003016001820381548110151561086057fe5b906000526020600020906003020160020154838381518110151561088057fe5b90602001906020020181815250508180600101925050808060019003915050610729565b848484995099509950505050505050509250925092565b600080600160008460ff1660ff16815260200190815260200160002060020160009054906101000a900460ff161561093d57600160008460ff1660ff168152602001908152602001600020600101549150600160008460ff1660ff16815260200190815260200160002060020160019054906101000a900460ff1690506109d1565b6040517f08c379a00000000000000000000000000000000000000000000000000000000081526004018080602001828103825260218152602001807f456c20646973706f73697469766f20696e64696361646f206e6f20657869737481526020017f650000000000000000000000000000000000000000000000000000000000000081525060400191505060405180910390fd5b915091565b6060806060806060806000600280549050604051908082528060200260200182016040528015610a155781602001602082028038833980820191505090505b509350600280549050604051908082528060200260200182016040528015610a4c5781602001602082028038833980820191505090505b509250600280549050604051908082528060200260200182016040528015610a835781602001602082028038833980820191505090505b509150600090505b6002805490508160ff161015610c24576001600060028360ff16815481101515610ab157fe5b9060005260206000200160000160009054906101000a900460ff1660ff1660ff16815260200190815260200160002060000160009054906101000a900460ff16848260ff16815181101515610b0257fe5b9060200190602002019060ff16908160ff16815250506001600060028360ff16815481101515610b2e57fe5b9060005260206000200160000160009054906101000a900460ff1660ff1660ff16815260200190815260200160002060010154838260ff16815181101515610b7257fe5b9060200190602002019060001916908160001916815250506001600060028360ff16815481101515610ba057fe5b9060005260206000200160000160009054906101000a900460ff1660ff1660ff16815260200190815260200160002060020160019054906101000a900460ff16828260ff16815181101515610bf157fe5b906020019060200201906002811115610c0657fe5b90816002811115610c1357fe5b815250508080600101915050610a8b565b83838396509650965050505050909192565b6000809054906101000a900473ffffffffffffffffffffffffffffffffffffffff1673ffffffffffffffffffffffffffffffffffffffff163373ffffffffffffffffffffffffffffffffffffffff16141515610d20576040517f08c379a000000000000000000000000000000000000000000000000000000000815260040180806020018281038252602f8152602001807f41636369c3b36e207065726d697469646120736f6c6f20616c2063726561646f81526020017f722064656c20636f6e747261746f2e000000000000000000000000000000000081525060400191505060405180910390fd5b600160008460ff1660ff16815260200190815260200160002060020160009054906101000a900460ff161515610e805782600160008560ff1660ff16815260200190815260200160002060000160006101000a81548160ff021916908360ff16021790555081600160008560ff1660ff168152602001908152602001600020600101816000191690555060018060008560ff1660ff16815260200190815260200160002060020160006101000a81548160ff02191690831515021790555080600160008560ff1660ff16815260200190815260200160002060020160016101000a81548160ff02191690836002811115610e1657fe5b021790555060026020604051908101604052808560ff1681525090806001815401808255809150509060018203906000526020600020016000909192909190915060008201518160000160006101000a81548160ff021916908360ff160217905550505050610eee565b6040517f08c379a00000000000000000000000000000000000000000000000000000000081526004018080602001828103825260188152602001807f456c20696420696e64696361646f20796120657869737465000000000000000081525060200191505060405180910390fd5b5050505600a165627a7a723058209c5e9b2ec2dcdda0b122f4125f81aa08e6fba3f5514ad700df49c796ecf005230029",
  "source": "pragma solidity ^0.4.24;\r\n\r\ncontract DemoSupplyChain {\r\n\r\n  //Dueño del contrato\r\n  address owner;\r\n\r\n  //Estado del sensor\r\n  enum deviceState { Active, Inactive, Deleted }\r\n\r\n  //Estructura de datos para una medición\r\n  struct Reading {\r\n    address sender;\r\n    uint timestamp;\r\n    uint temperature;\r\n  }\r\n\r\n  //Estructura de datos para el dispositivo\r\n  struct Device {\r\n    uint8 deviceId;\r\n    bytes32 description;\r\n    bool exists;\r\n    deviceState state;\r\n    Reading[] readings;\r\n  }\r\n\r\n  //Mapping para guardar sensores\r\n  mapping(uint8 => Device) internal devices;\r\n\r\n  //Estructura de datos para clave del dispositivo\r\n  struct DeviceIds {\r\n    uint8 deviceId;\r\n  }\r\n\r\n  //Array para guardar las claves\r\n  DeviceIds[] private devicesIdsLUT;\r\n\r\n  //Chequear que la acción solo la ejecute el creado del contrato\r\n  modifier onlyOwner() { // Modifier\r\n    require(msg.sender == owner, \"Acción permitida solo al creador del contrato.\");\r\n    _;\r\n  }\r\n\r\n  //Constructor del contrato\r\n  constructor() public {\r\n\r\n    //Registrar el propietario\r\n    owner = msg.sender;\r\n\r\n    //Agregar dispositivo por defecto\r\n    addDevice(1, \"Sensor de temperatura\", deviceState.Active);\r\n\r\n  }\r\n\r\n  //Función para agregar un nuevo dispositivo\r\n  function addDevice(uint8 _deviceId, bytes32 _description, deviceState _state)\r\n  public\r\n  onlyOwner {\r\n    //Si el dispositivo aún no existe\r\n    if (!devices[_deviceId].exists) {\r\n      //Agregar nuevo dispositivo \r\n      devices[_deviceId].deviceId = _deviceId;\r\n      devices[_deviceId].description = _description;\r\n      devices[_deviceId].exists = true;\r\n      devices[_deviceId].state = _state;\r\n\r\n      //Agregar la clave a la LUT\r\n      devicesIdsLUT.push(DeviceIds(_deviceId));\r\n\r\n    } else {\r\n      revert(\"El id indicado ya existe\");\r\n    }\r\n  }\r\n\r\n  //Función para agregar una nueva medición\r\n  function addReading(uint8 _deviceId, uint _timestamp, uint _temperature)\r\n  public {\r\n    //Si el dispositivo existe\r\n    if (devices[_deviceId].exists) {\r\n\r\n      //Agregar nueva medición\r\n      devices[_deviceId].readings.push(Reading(msg.sender, _timestamp, _temperature));\r\n\r\n    } else {\r\n      revert(\"El id de dispositivo indicado no existe\");\r\n    }\r\n  }\r\n\r\n  //Obtener datos del dispositivo\r\n  function getDeviceById(uint8 _deviceId)\r\n  constant\r\n  public\r\n  returns(bytes32 description, deviceState state) {\r\n    //Si el dispositivo existe\r\n    if (devices[_deviceId].exists) {\r\n      description = devices[_deviceId].description;\r\n      state = devices[_deviceId].state;\r\n    } else {\r\n      revert(\"El dispositivo indicado no existe\");\r\n    }\r\n  }\r\n\r\n  //Obtener todos los dispositivos\r\n  function getAllDevices()\r\n  constant\r\n  public\r\n  returns(uint8[], bytes32[], deviceState[])\r\n  {\r\n    uint8[] memory deviceId = new uint8[](devicesIdsLUT.length);\r\n    bytes32[] memory description = new bytes32[](devicesIdsLUT.length);\r\n    deviceState[] memory state = new deviceState[](devicesIdsLUT.length);\r\n\r\n    for (uint8 i = 0; i < devicesIdsLUT.length; i++) {\r\n      deviceId[i] = devices[devicesIdsLUT[i].deviceId].deviceId;\r\n      description[i] = devices[devicesIdsLUT[i].deviceId].description;\r\n      state[i] = devices[devicesIdsLUT[i].deviceId].state;\r\n    }\r\n\r\n    return (deviceId, description, state);\r\n  }\r\n\r\n  //Obtener las últimas N mediciones de un dispositivo\r\n  function getLastNReadingsByDeviceId(uint8 _deviceId, uint8 _readingNumber)\r\n  constant\r\n  public\r\n  returns(address[], uint[], uint[])\r\n  {\r\n    if (!devices[_deviceId].exists) {\r\n      revert(\"El dispositivo indicado no existe\");\r\n    }\r\n\r\n    //Obtener índice desde, hasta y tamaño del array\r\n    uint fromIndex = devices[_deviceId].readings.length;\r\n    uint toIndex = 0;\r\n    //Si tiene menos lecturas de las que se piden\r\n    if (devices[_deviceId].readings.length < _readingNumber) {\r\n      toIndex = 1;\r\n    } else {\r\n      toIndex = devices[_deviceId].readings.length - _readingNumber + 1;\r\n    }\r\n\r\n    address[] memory sender = new address[](fromIndex - toIndex + 1);\r\n    uint[] memory timestamp = new uint[](fromIndex - toIndex + 1);\r\n    uint[] memory temperature = new uint[](fromIndex - toIndex + 1);\r\n    uint index = 0;\r\n\r\n    for(uint i = fromIndex; i >= toIndex; i--){\r\n      sender[index] = devices[_deviceId].readings[i-1].sender;\r\n      timestamp[index] = devices[_deviceId].readings[i-1].timestamp;\r\n      temperature[index] = devices[_deviceId].readings[i-1].temperature;\r\n      index++;\r\n    }\r\n\r\n    //Devolver valores\r\n    return (sender, timestamp, temperature);\r\n  }\r\n\r\n}",
  "sourcePath": "C:\\Users\\cristian.delasota\\Blockchain\\supplychain\\contracts\\DemoSupplyChain.sol",
  "compiler": {
    "name": "solc",
    "version": "0.4.24+commit.e67f0147.Emscripten.clang"
  },
  "schemaVersion": "2.0.1",
  "updatedAt": "2018-08-31T19:14:30.047Z"
}